{
  "_format": "hh-sol-artifact-1",
  "contractName": "Wallet",
  "sourceName": "contracts/Wallet.sol",
  "abi": [
    {
      "anonymous": false,
      "inputs": [
        {
          "indexed": false,
          "internalType": "uint256",
          "name": "_layerNum",
          "type": "uint256"
        },
        {
          "indexed": false,
          "internalType": "uint256",
          "name": "_amountMin",
          "type": "uint256"
        },
        {
          "indexed": false,
          "internalType": "uint256",
          "name": "_amountMax",
          "type": "uint256"
        },
        {
          "indexed": false,
          "internalType": "uint256",
          "name": "_numTokens",
          "type": "uint256"
        }
      ],
      "name": "TestLogLayerToMakeTransfer",
      "type": "event"
    },
    {
      "anonymous": false,
      "inputs": [
        {
          "indexed": false,
          "internalType": "uint256",
          "name": "_numLayersToMakeTransfer",
          "type": "uint256"
        }
      ],
      "name": "TestLogNumLayersToMakeTransfer",
      "type": "event"
    },
    {
      "anonymous": false,
      "inputs": [
        {
          "indexed": false,
          "internalType": "uint256",
          "name": "_numTransferLayers",
          "type": "uint256"
        }
      ],
      "name": "TestLogNumTransferLayers",
      "type": "event"
    },
    {
      "anonymous": false,
      "inputs": [
        {
          "indexed": false,
          "internalType": "uint256",
          "name": "_numTransfers",
          "type": "uint256"
        }
      ],
      "name": "TestLogNumTransfers",
      "type": "event"
    },
    {
      "anonymous": false,
      "inputs": [
        {
          "indexed": false,
          "internalType": "uint256",
          "name": "_transferNum",
          "type": "uint256"
        },
        {
          "indexed": false,
          "internalType": "address",
          "name": "_receiver",
          "type": "address"
        },
        {
          "indexed": false,
          "internalType": "uint256",
          "name": "_amount",
          "type": "uint256"
        },
        {
          "indexed": false,
          "internalType": "uint256",
          "name": "_transferLayersIndex",
          "type": "uint256"
        },
        {
          "indexed": false,
          "internalType": "bool",
          "name": "_executed",
          "type": "bool"
        }
      ],
      "name": "TestLogTransfer",
      "type": "event"
    },
    {
      "anonymous": false,
      "inputs": [
        {
          "indexed": false,
          "internalType": "uint256",
          "name": "_transferNum",
          "type": "uint256"
        },
        {
          "indexed": false,
          "internalType": "uint256",
          "name": "_transferLayerNum",
          "type": "uint256"
        },
        {
          "indexed": false,
          "internalType": "uint256",
          "name": "_amountMin",
          "type": "uint256"
        },
        {
          "indexed": false,
          "internalType": "uint256",
          "name": "_amountMax",
          "type": "uint256"
        },
        {
          "indexed": false,
          "internalType": "uint256",
          "name": "_numTokens",
          "type": "uint256"
        }
      ],
      "name": "TestLogTransferLayer",
      "type": "event"
    },
    {
      "inputs": [
        {
          "internalType": "address",
          "name": "_receiver",
          "type": "address"
        }
      ],
      "name": "test",
      "outputs": [],
      "stateMutability": "nonpayable",
      "type": "function"
    }
  ],
  "bytecode": "0x608060405234801561001057600080fd5b50610d97806100206000396000f3fe608060405234801561001057600080fd5b506004361061002b5760003560e01c8063bb29998e14610030575b600080fd5b61004a6004803603810190610045919061082d565b61004c565b005b6100546100c7565b61005c6100e1565b60006103e8905061006d82826101b6565b61007782826101b6565b61008182826101b6565b61008b82826101b6565b61009582826101b6565b61009f82826101b6565b6100a982826101b6565b6100b382826101b6565b6100bb6101c4565b6100c36102cd565b5050565b6100d3600060646103df565b6100df606460786103df565b565b7f2335b7e19425c64f82a69a5bd40a2980cb0e2b909a099264a0f0b0afa50b10a86000546040516101129190610873565b60405180910390a160005b6000548110156101b35760006001600083815260200190815260200160002090506000816000016000015490506000826000016001015490506000836002015490507fc7a6584e52e55c7edc1c05332447da489f8c3467233c097d4fa6baca773784fd85848484604051610194949392919061088e565b60405180910390a15050505080806101ab90610902565b91505061011d565b50565b6101c08282610547565b5050565b7f790b8b46c8d4131ed6f9d9ef44057cdac9b508af7420aa44e040454966ac4e226002546040516101f59190610873565b60405180910390a160005b6004548110156102ca5760005b6002548110156102b657600060036000848152602001908152602001600020600083815260200190815260200160002090506000816000016000015490506000826000016001015490506000836002015490507f59f897cb58bd33eafebd49a834201ac66d002792fac88045584cccca5aaf7366868685858560405161029795949392919061094a565b60405180910390a15050505080806102ae90610902565b91505061020d565b5080806102c290610902565b915050610200565b50565b7f68cb28cbcc62e6d7779858e52201ed9ab3cce9f18ea6234250afac841ce05b9f6004546040516102fe9190610873565b60405180910390a160005b6004548110156103dc57600060056000838152602001908152602001600020905060008160000154905060008260010160009054906101000a900473ffffffffffffffffffffffffffffffffffffffff16905060008360020154905060008460030154905060008560040160009054906101000a900460ff1690507f8c965d95076bc96ab8fe7c50fa34d05b349100a3035cc27f3b89067b651d670285858585856040516103bb9594939291906109c7565b60405180910390a150505050505080806103d490610902565b915050610309565b50565b6000600160008054815260200190815260200160002090506000604051806040016040528085815260200184815250905080826000016000820151816000015560208201518160010155905050600060405180604001604052806040518060400160405280600381526020017f455448000000000000000000000000000000000000000000000000000000000081525081526020016040518060400160405280600481526020017f5553444300000000000000000000000000000000000000000000000000000000815250815250905060005b60028110156105285760008282600281106104d0576104cf610a1a565b5b602002015190508085600301600084815260200190815260200160002090816104f99190610c8f565b5084600201600081548092919061050f90610902565b919050555050808061052090610902565b9150506104b2565b5060008081548092919061053b90610902565b91905055505050505050565b61054f61055d565b6105598282610715565b5050565b60005b600054811015610712576000600160008381526020019081526020016000209050600060036000600454815260200190815260200160002060008481526020019081526020016000209050600060405180604001604052808460000160000154815260200184600001600101548152509050808260000160008201518160000155602082015181600101559050508260020154826002018190555060005b83600201548110156106e3576000846003016000838152602001908152602001600020805461062c90610ab2565b80601f016020809104026020016040519081016040528092919081815260200182805461065890610ab2565b80156106a55780601f1061067a576101008083540402835291602001916106a5565b820191906000526020600020905b81548152906001019060200180831161068857829003601f168201915b505050505090508084600301600084815260200190815260200160002090816106ce9190610c8f565b505080806106db90610902565b9150506105fe565b50600260008154809291906106f790610902565b9190505550505050808061070a90610902565b915050610560565b50565b600060056000600454815260200190815260200160002090506004548160000181905550828160010160006101000a81548173ffffffffffffffffffffffffffffffffffffffff021916908373ffffffffffffffffffffffffffffffffffffffff160217905550818160020181905550600454816003018190555060008160040160006101000a81548160ff021916908315150217905550600460008154809291906107c090610902565b9190505550505050565b600080fd5b600073ffffffffffffffffffffffffffffffffffffffff82169050919050565b60006107fa826107cf565b9050919050565b61080a816107ef565b811461081557600080fd5b50565b60008135905061082781610801565b92915050565b600060208284031215610843576108426107ca565b5b600061085184828501610818565b91505092915050565b6000819050919050565b61086d8161085a565b82525050565b60006020820190506108886000830184610864565b92915050565b60006080820190506108a36000830187610864565b6108b06020830186610864565b6108bd6040830185610864565b6108ca6060830184610864565b95945050505050565b7f4e487b7100000000000000000000000000000000000000000000000000000000600052601160045260246000fd5b600061090d8261085a565b91507fffffffffffffffffffffffffffffffffffffffffffffffffffffffffffffffff820361093f5761093e6108d3565b5b600182019050919050565b600060a08201905061095f6000830188610864565b61096c6020830187610864565b6109796040830186610864565b6109866060830185610864565b6109936080830184610864565b9695505050505050565b6109a6816107ef565b82525050565b60008115159050919050565b6109c1816109ac565b82525050565b600060a0820190506109dc6000830188610864565b6109e9602083018761099d565b6109f66040830186610864565b610a036060830185610864565b610a1060808301846109b8565b9695505050505050565b7f4e487b7100000000000000000000000000000000000000000000000000000000600052603260045260246000fd5b600081519050919050565b7f4e487b7100000000000000000000000000000000000000000000000000000000600052604160045260246000fd5b7f4e487b7100000000000000000000000000000000000000000000000000000000600052602260045260246000fd5b60006002820490506001821680610aca57607f821691505b602082108103610add57610adc610a83565b5b50919050565b60008190508160005260206000209050919050565b60006020601f8301049050919050565b600082821b905092915050565b600060088302610b457fffffffffffffffffffffffffffffffffffffffffffffffffffffffffffffffff82610b08565b610b4f8683610b08565b95508019841693508086168417925050509392505050565b6000819050919050565b6000610b8c610b87610b828461085a565b610b67565b61085a565b9050919050565b6000819050919050565b610ba683610b71565b610bba610bb282610b93565b848454610b15565b825550505050565b600090565b610bcf610bc2565b610bda818484610b9d565b505050565b5b81811015610bfe57610bf3600082610bc7565b600181019050610be0565b5050565b601f821115610c4357610c1481610ae3565b610c1d84610af8565b81016020851015610c2c578190505b610c40610c3885610af8565b830182610bdf565b50505b505050565b600082821c905092915050565b6000610c6660001984600802610c48565b1980831691505092915050565b6000610c7f8383610c55565b9150826002028217905092915050565b610c9882610a49565b67ffffffffffffffff811115610cb157610cb0610a54565b5b610cbb8254610ab2565b610cc6828285610c02565b600060209050601f831160018114610cf95760008415610ce7578287015190505b610cf18582610c73565b865550610d59565b601f198416610d0786610ae3565b60005b82811015610d2f57848901518255600182019150602085019450602081019050610d0a565b86831015610d4c5784890151610d48601f891682610c55565b8355505b6001600288020188555050505b50505050505056fea2646970667358221220bef7da93f9b361e025b0712e26e2b27bbd513560885f09de0de5d3735836c56e64736f6c63430008110033",
  "linkReferences": {},
  "deployedLinkReferences": {}
}